:100000000C9462000C948A000C948A000C948A0070
:100010000C948A000C948A000C948A000C948A0038
:100020000C948A000C948A000C948A000C948A0028
:100030000C948A000C948A000C948A000C948A0018
:100040000C94C7030C948A000C9495030C946F03D2
:100050000C948A000C948A000C948A000C948A00F8
:100060000C948A000C948A000000000023002600F3
:10007000290000000000240027002A0000000000E2
:10008000250028002B0004040404040404040202D4
:100090000202020203030303030301020408102007
:1000A0004080010204081020010204081020000012
:1000B0000008000201000003040700000000000027
:1000C0000000B70511241FBECFEFD8E0DEBFCDBFC3
:1000D00011E0A0E0B1E0E2E9FEE002C005900D927F
:1000E000AA3BB107D9F722E0AAEBB1E001C01D920B
:1000F000AA36B207E1F710E0C2E6D0E004C02197CB
:10010000FE010E943C07C136D107C9F70E94560480
:100110000C9447070C940000CF92DF92EF92FF926D
:100120000F931F93CF93DF936C017A018B01C0E093
:10013000D0E0CE15DF0589F0D8016D918D01D60193
:10014000ED91FC910190F081E02DC6010995892B7C
:1001500011F47E0102C02196ECCFC701DF91CF914F
:100160001F910F91FF90EF90DF90CF900895089529
:1001700080E090E00895FC01538D448D252F30E000
:10018000842F90E0821B930B541710F0CF960895A4
:1001900001970895FC01918D828D981761F0828DF1
:1001A000DF01A80FB11D5D968C91928D9F5F9F73AB
:1001B000928F90E008958FEF9FEF0895FC01918D4D
:1001C000828D981731F0828DE80FF11D858D90E0BA
:1001D00008958FEF9FEF0895FC01918D228D892F57
:1001E00090E0805C9F4F821B91098F73992708953F
:1001F0008DEC91E00E94EC0021E0892B09F420E0D5
:10020000822F0895FC01848DDF01A80FB11DA35A30
:10021000BF4F2C91848D90E001968F739927848F26
:10022000A689B7892C93A089B1898C9180648C931D
:10023000938D848D981306C00288F389E02D808108
:100240008F7D80830895EF92FF920F931F93CF933A
:10025000DF93EC0181E0888F9B8D8C8D981305C016
:10026000E889F989808185FD24C0F62E0B8D10E088
:100270000F5F1F4F0F731127E02E8C8DE8120CC0FB
:100280000FB607FCFACFE889F989808185FFF5CFA1
:10029000CE010E940201F1CF8B8DFE01E80FF11D0E
:1002A000E35AFF4FF0820B8FEA89FB8980818062DD
:1002B00007C0EE89FF896083E889F98980818064BD
:1002C000808381E090E0DF91CF911F910F91FF90AB
:1002D000EF900895CF93DF93EC01888D8823C9F0C8
:1002E000EA89FB89808185FD05C0A889B9898C913F
:1002F00086FD0FC00FB607FCF5CF808185FFF2CFDA
:10030000A889B9898C9185FFEDCFCE010E940201A9
:10031000E7CFDF91CF91089580E090E0892B29F01D
:100320000E94F80081110C940000089590E0FC01F7
:10033000E255FF4F3491FC01E656FF4F2491FC013A
:10034000EA57FF4FE491EE2309F43BC0332339F120
:10035000333091F038F43130A9F0323001F584B502
:100360008F7D12C0373091F03830A1F03430B9F4BD
:10037000809180008F7D03C0809180008F77809373
:1003800080000DC084B58F7784BD09C08091B00016
:100390008F7703C08091B0008F7D8093B000F0E034
:1003A000EE0FFF1FE458FF4FA591B4918FB7F8945B
:1003B000EC91611103C020952E2301C02E2B2C93AC
:1003C0008FBF0895CF93DF9390E0FC01E656FF4F77
:1003D0002491FC01EA57FF4F8491882361F190E05A
:1003E000880F991FFC01EE58FF4FC591D491FC0175
:1003F000E458FF4FA591B491611109C09FB7F894DB
:100400008881209582238883EC912E230BC0623053
:1004100061F49FB7F8943881822F80958323888375
:10042000EC912E2B2C939FBF06C08FB7F894E881D8
:100430002E2B28838FBFDF91CF9108953FB7F8947B
:100440008091BF019091C001A091C101B091C20102
:1004500026B5A89B05C02F3F19F00196A11DB11D1F
:100460003FBFBA2FA92F982F8827820F911DA11D5A
:10047000B11DBC01CD0142E0660F771F881F991F97
:100480004A95D1F70895009769F0FC01019000208A
:10049000E9F73197AF01481B590BBC018DEC91E096
:1004A0000C948C0080E090E0089582E191E00C943F
:1004B0004302CF93DF930E944302EC010E94550256
:1004C0008C0F9D1FDF91CF9108958F929F92AF92D5
:1004D000BF920F931F93CF93DF93CDB7DEB7A19752
:1004E0000FB6F894DEBF0FBECDBF19A2423008F49C
:1004F0004AE08E010F5D1F4F842E912CA12CB12C50
:10050000A50194010E941A07E62FB901CA01015002
:100510001109EA3014F4E05D01C0E95CD801EC9304
:10052000232B242B252B61F7C8010E944302A1969F
:100530000FB6F894DEBF0FBECDBFDF91CF911F91F4
:100540000F91BF90AF909F908F9008950C944302AD
:10055000CF93DF93BC0180E090E04AE00E94650207
:10056000EC010E9455028C0F9D1FDF91CF910895E1
:10057000CF92DF92EF92FF92CF93DF936C01990FAE
:10058000EE08FF08F7FE1AC0E091CD01F091CE0110
:100590000190F081E02D6DE28DEC91E00995EC0188
:1005A00066277727CB016C197D098E099F094AE0E0
:1005B0000E9465027C01EC0EFD1E06C04AE0C701E8
:1005C000B6010E9465027C010E9455028E0D9F1D9E
:1005D000DF91CF91FF90EF90DF90CF9008950E9430
:1005E00042078F929F92AF92BF92CF92DF92EF928B
:1005F000FF920F931F93CF93DF93D82FC62F61E005
:100600000E9496010E941E024B015C019AE0C92ED5
:10061000D12CE12CF12C0E941E02DC01CB018819A7
:100620009909AA09BB09883E9340A105B10558F074
:1006300021E0C21AD108E108F10888EE880E83E0B3
:10064000981EA11CB11CC114D104E104F10419F7D6
:1006500060E08D2F0E9496018C2F90E0FC01E65601
:10066000FF4F6491FC01EA57FF4FE491F0E0EE0F79
:10067000FF1FE859FF4F8591949100E412E42FE0A9
:1006800030E0462F0E941104611571058105910526
:1006900039F0DC01CB010196A11DB11DBF7003C073
:1006A00080E090E0DC01BC01990F880B990B0E945F
:1006B0008E062DEC3CEC48E652E40E94E4050E94D4
:1006C0005606CB01DF91CF911F910F91FF90EF90D4
:1006D000DF90CF90BF90AF909F908F9008951F9222
:1006E0000F920FB60F9211242F933F934F935F9366
:1006F0006F937F938F939F93AF93BF93EF93FF93EA
:100700008DEC91E00E940201FF91EF91BF91AF91BA
:100710009F918F917F916F915F914F913F912F9119
:100720000F900FBE0F901F9018951F920F920FB64B
:100730000F9211242F938F939F93EF93FF93E09148
:10074000DD01F091DE018081E091E301F091E401AF
:1007500082FD12C090818091E6018F5F8F7320919E
:10076000E701821751F0E091E601F0E0E353FE4F1C
:10077000958F8093E60101C08081FF91EF919F9159
:100780008F912F910F900FBE0F901F9018951F9271
:100790000F920FB60F9211242F933F938F939F9335
:1007A000AF93BF938091BB019091BC01A091BD011B
:1007B000B091BE013091BA0123E0230F2D3720F410
:1007C0000196A11DB11D05C026E8230F0296A11DAB
:1007D000B11D2093BA018093BB019093BC01A093FB
:1007E000BD01B093BE018091BF019091C001A09165
:1007F000C101B091C2010196A11DB11D8093BF013D
:100800009093C001A093C101B093C201BF91AF9179
:100810009F918F913F912F910F900FBE0F901F903E
:100820001895CF92DF92EF92FF920F931F93E82FCC
:10083000F92F05C0015011092109310961F1908199
:1008400096239417B9F305C0015011092109310904
:1008500011F1908196239413F7CFC12CD12CE12C68
:10086000F12C0AC08FEFC81AD80AE80AF80A0C154A
:100870001D052E053F0579F080818623841791F3AD
:100880006C2D7D2D8E2D9F2D1F910F91FF90EF9040
:10089000DF90CF90089560E070E080E090E01F91DD
:1008A0000F91FF90EF90DF90CF900895789484B5EA
:1008B000826084BD84B5816084BD85B5826085BD5C
:1008C00085B5816085BD80916E00816080936E00EA
:1008D00010928100809181008260809381008091DC
:1008E000810081608093810080918000816080938D
:1008F00080008091B10084608093B1008091B0004D
:1009000081608093B00080917A00846080937A0047
:1009100080917A00826080937A0080917A00816071
:1009200080937A0080917A00806880937A00109298
:10093000C10061E083E00E94E20161E085E00E9485
:10094000E20160E084E00E94E20160E086E00E9453
:10095000E201E091DD01F091DE0182E08083E0912F
:10096000D901F091DA011082E091DB01F091DC0114
:100970008FEC80831092E501E091E101F091E201BA
:1009800086E08083E091DF01F091E0018081806169
:100990008083E091DF01F091E001808188608083B5
:1009A000E091DF01F091E001808180688083E09137
:1009B000DF01F091E00180818F7D8083C2E0D0E093
:1009C00003E010E0EE24E394F12C64E083E00E9465
:1009D000F1029093CC018093CB0166E085E00E9408
:1009E000F1029093CA018093C9012091CB0130910B
:1009F000CC01243131054CF4F092C801E092C701DA
:100A000085E191E00E9459020EC0449764F4D093AE
:100A1000C801C093C70183E291E00E94590210937C
:100A2000C8010093C7018091C7019091C80181302E
:100A3000910521F0029709F44DC096C066E085E06B
:100A40000E94F1029093CA018093C90144970CF06F
:100A50008BC08091C5019091C60101969093C6010B
:100A60008093C5018091C3019091C4010196909338
:100A7000C4018093C30182E391E00E94A6028091A9
:100A8000CB019091CC010E94B8028DE391E00E94CD
:100A9000A6028091C9019091CA010E94B8020E94E9
:100AA000550289E491E00E94A6028091C3019091D1
:100AB000C4010E94A80289E591E00E94A6028091EB
:100AC000C5019091C6010E94A8020E94550288E6C5
:100AD00091E042C064E083E00E94F1029093CC0177
:100AE0008093CB0144970CF03FC08091C30190915B
:100AF000C40101979093C4018093C30182E391E004
:100B00000E94A6028091CB019091CC010E94B80274
:100B10008DE391E00E94A6028091C9019091CA01E3
:100B20000E94B8020E94550289E491E00E94A60248
:100B30008091C3019091C4010E94A80289E591E0CF
:100B40000E94A6028091C5019091C6010E94A80250
:100B50000E9455028AEA91E00E9459020E945502C1
:100B600086E791E00E9459020E948C012ECFEDECA5
:100B7000F1E01382128288EE93E0A0E0B0E084837B
:100B80009583A683B78384E091E09183808385EC8D
:100B900090E09587848784EC90E09787868780EC47
:100BA00090E0918B808B81EC90E0938B828B82EC38
:100BB00090E0958B848B86EC90E0978B868B118EE2
:100BC000128E138E148E08950E94F8050C94E00680
:100BD0000E94D90658F00E94D20640F029F45F3FE7
:100BE00029F00C94C90651110C9414070C94CF06EB
:100BF0000E94F10668F39923B1F3552391F3951BF5
:100C0000550BBB27AA2762177307840738F09F5F2D
:100C10005F4F220F331F441FAA1FA9F335D00E2E9A
:100C20003AF0E0E832D091505040E695001CCAF707
:100C30002BD0FE2F29D0660F771F881FBB1F2617CA
:100C400037074807AB07B0E809F0BB0B802DBF01A1
:100C5000FF2793585F4F3AF09E3F510578F00C9470
:100C6000C9060C9414075F3FE4F3983ED4F38695CD
:100C700077956795B795F7959F5FC9F7880F911D91
:100C80009695879597F90895E1E0660F771F881F7D
:100C9000BB1F621773078407BA0720F0621B730B30
:100CA000840BBA0BEE1F88F7E09508950E945D064D
:100CB0006894B1110C94140708950E94F90688F005
:100CC0009F5798F0B92F9927B751B0F0E1F0660F10
:100CD000771F881F991F1AF0BA95C9F714C0B13051
:100CE00091F00E941307B1E008950C941307672F49
:100CF000782F8827B85F39F0B93FCCF38695779580
:100D00006795B395D9F73EF4909580957095619568
:100D10007F4F8F4F9F4F0895E89409C097FB3EF493
:100D200090958095709561957F4F8F4F9F4F992338
:100D3000A9F0F92F96E9BB279395F69587957795B6
:100D40006795B795F111F8CFFAF4BB0F11F460FF76
:100D50001BC06F5F7F4F8F4F9F4F16C0882311F0CE
:100D600096E911C0772321F09EE8872F762F05C0E2
:100D7000662371F096E8862F70E060E02AF09A957D
:100D8000660F771F881FDAF7880F9695879597F972
:100D9000089597F99F6780E870E060E008959FEFFD
:100DA00080EC089500240A94161617061806090602
:100DB000089500240A9412161306140605060895D1
:100DC000092E0394000C11F4882352F0BB0F40F459
:100DD000BF2B11F460FF04C06F5F7F4F8F4F9F4F99
:100DE000089557FD9058440F551F59F05F3F71F01B
:100DF0004795880F97FB991F61F09F3F79F0879582
:100E00000895121613061406551FF2CF4695F1DF0A
:100E100008C0161617061806991FF1CF869571059A
:100E2000610508940895E894BB2766277727CB01CE
:100E300097F90895A1E21A2EAA1BBB1BFD010DC054
:100E4000AA1FBB1FEE1FFF1FA217B307E407F5077A
:100E500020F0A21BB30BE40BF50B661F771F881F56
:100E6000991F1A9469F760957095809590959B01EC
:100E7000AC01BD01CF010895EE0FFF1F0590F49165
:100E8000E02D099481E090E0F8940C944707F894E1
:020E9000FFCF92
:100E92000000000023018C00BB006A01EC00CA00C4
:100EA200DE000D0A00537461747573203E3E2069A2
:100EB2006E0A00537461747573203E3E206F757420
:100EC2000A004469735F696E203E3E2000446973E4
:100ED2005F6F7574203E3E20004E6F7720696E2052
:100EE200526F6F6D203E3E2000416C6C2050656F4A
:100EF200706C65203E3E2000536F6D656F6E6520FD
:100F0200697320696E002F2F2F2F2F2F2F2F2F2F36
:100F12002F2F2F2F2F2F2F2F2F2F2F2F2F2F2F2FDF
:100F22002F2F2F2F2F2F2F2F2F2F2F2F2F2F2F2FCF
:100F32002F2F2F2F2F2F2F2F2F00536F6D656F6E97
:0A0F420065206973206F75740000CC
:107E0000112484B714BE81FFF0D085E080938100F7
:107E100082E08093C00088E18093C10086E0809377
:107E2000C20080E18093C4008EE0C9D0259A86E02C
:107E300020E33CEF91E0309385002093840096BBD3
:107E4000B09BFECF1D9AA8958150A9F7CC24DD24C4
:107E500088248394B5E0AB2EA1E19A2EF3E0BF2EE7
:107E6000A2D0813461F49FD0082FAFD0023811F036
:107E7000013811F484E001C083E08DD089C08234E0
:107E800011F484E103C0853419F485E0A6D080C0E4
:107E9000853579F488D0E82EFF2485D0082F10E0AE
:107EA000102F00270E291F29000F111F8ED06801E7
:107EB0006FC0863521F484E090D080E0DECF843638
:107EC00009F040C070D06FD0082F6DD080E0C81688
:107ED00080E7D80618F4F601B7BEE895C0E0D1E017
:107EE00062D089930C17E1F7F0E0CF16F0E7DF06D8
:107EF00018F0F601B7BEE89568D007B600FCFDCFD4
:107F0000A601A0E0B1E02C9130E011968C91119780
:107F100090E0982F8827822B932B1296FA010C0160
:107F200087BEE89511244E5F5F4FF1E0A038BF0790
:107F300051F7F601A7BEE89507B600FCFDCF97BE46
:107F4000E89526C08437B1F42ED02DD0F82E2BD052
:107F50003CD0F601EF2C8F010F5F1F4F84911BD097
:107F6000EA94F801C1F70894C11CD11CFA94CF0C13
:107F7000D11C0EC0853739F428D08EE10CD085E9AC
:107F80000AD08FE07ACF813511F488E018D01DD067
:107F900080E101D065CF982F8091C00085FFFCCF94
:107FA0009093C60008958091C00087FFFCCF809118
:107FB000C00084FD01C0A8958091C6000895E0E648
:107FC000F0E098E1908380830895EDDF803219F02E
:107FD00088E0F5DFFFCF84E1DECF1F93182FE3DFCA
:107FE0001150E9F7F2DF1F91089580E0E8DFEE27F6
:047FF000FF270994CA
:027FFE00040479
:0400000300007E007B
:00000001FF